{
  "address": "0x6EBc87749C2d618F3eE13F8A5d6293986794326a",
  "abi": [
    {
      "inputs": [],
      "stateMutability": "nonpayable",
      "type": "constructor"
    },
    {
      "inputs": [
        {
          "internalType": "uint256",
          "name": "",
          "type": "uint256"
        }
      ],
      "name": "article",
      "outputs": [
        {
          "internalType": "address",
          "name": "writer",
          "type": "address"
        },
        {
          "internalType": "string",
          "name": "content",
          "type": "string"
        }
      ],
      "stateMutability": "view",
      "type": "function"
    },
    {
      "inputs": [],
      "name": "cnt",
      "outputs": [
        {
          "internalType": "uint256",
          "name": "",
          "type": "uint256"
        }
      ],
      "stateMutability": "view",
      "type": "function"
    },
    {
      "inputs": [],
      "name": "owner",
      "outputs": [
        {
          "internalType": "address",
          "name": "",
          "type": "address"
        }
      ],
      "stateMutability": "view",
      "type": "function"
    },
    {
      "inputs": [
        {
          "internalType": "uint256",
          "name": "idx",
          "type": "uint256"
        }
      ],
      "name": "read",
      "outputs": [
        {
          "components": [
            {
              "internalType": "address",
              "name": "writer",
              "type": "address"
            },
            {
              "internalType": "string",
              "name": "content",
              "type": "string"
            }
          ],
          "internalType": "struct Article",
          "name": "",
          "type": "tuple"
        }
      ],
      "stateMutability": "view",
      "type": "function"
    },
    {
      "inputs": [],
      "name": "readAll",
      "outputs": [
        {
          "components": [
            {
              "internalType": "address",
              "name": "writer",
              "type": "address"
            },
            {
              "internalType": "string",
              "name": "content",
              "type": "string"
            }
          ],
          "internalType": "struct Article[]",
          "name": "",
          "type": "tuple[]"
        }
      ],
      "stateMutability": "view",
      "type": "function"
    },
    {
      "inputs": [],
      "name": "reset",
      "outputs": [],
      "stateMutability": "nonpayable",
      "type": "function"
    },
    {
      "inputs": [
        {
          "internalType": "string",
          "name": "content",
          "type": "string"
        }
      ],
      "name": "write",
      "outputs": [],
      "stateMutability": "nonpayable",
      "type": "function"
    }
  ],
  "transactionHash": "0x0df82e99538c9a4b8eb27afdf8bd070c2b144c55f20a2f618043d728f254090e",
  "args": [],
  "numDeployments": 1,
  "solcInputHash": "26e88ac0837974cf79df604ce21b0a8c",
  "bytecode": "0x608060405234801561001057600080fd5b50600080546001600160a01b0319163317905561088e806100326000396000f3fe608060405234801561001057600080fd5b506004361061007d5760003560e01c8063d6d838ad1161005b578063d6d838ad146100ec578063d826f88f14610103578063ebaac7711461010d578063ed2e5a971461012057600080fd5b8063144194471461008257806341f654f7146100ac5780638da5cb5b146100c1575b600080fd5b610095610090366004610501565b610140565b6040516100a3929190610560565b60405180910390f35b6100b46101ef565b6040516100a391906105b3565b6000546100d4906001600160a01b031681565b6040516001600160a01b0390911681526020016100a3565b6100f560015481565b6040519081526020016100a3565b61010b610357565b005b61010b61011b366004610615565b610375565b61013361012e366004610501565b610428565b6040516100a39190610687565b600260205260009081526040902080546001820180546001600160a01b03909216929161016c906106a1565b80601f0160208091040260200160405190810160405280929190818152602001828054610198906106a1565b80156101e55780601f106101ba576101008083540402835291602001916101e5565b820191906000526020600020905b8154815290600101906020018083116101c857829003601f168201915b5050505050905082565b6060600060015467ffffffffffffffff81111561020e5761020e6106d5565b60405190808252806020026020018201604052801561025457816020015b60408051808201909152600081526060602082015281526020019060019003908161022c5790505b50905060005b60015481101561035157600081815260026020908152604091829020825180840190935280546001600160a01b03168352600181018054919284019161029f906106a1565b80601f01602080910402602001604051908101604052809291908181526020018280546102cb906106a1565b80156103185780601f106102ed57610100808354040283529160200191610318565b820191906000526020600020905b8154815290600101906020018083116102fb57829003601f168201915b505050505081525050828281518110610333576103336106eb565b6020026020010181905250808061034990610717565b91505061025a565b50919050565b6000546001600160a01b0316331461036e57600080fd5b6000600155565b6040518060400160405280336001600160a01b0316815260200183838080601f0160208091040260200160405190810160405280939291908181526020018383808284376000920182905250939094525050600180548252600260209081526040909220845181546001600160a01b0319166001600160a01b0390911617815591840151919250820190610409908261077f565b50905050600180600082825461041f919061083f565b90915550505050565b604080518082019091526000815260606020820152600082815260026020908152604091829020825180840190935280546001600160a01b031683526001810180549192840191610478906106a1565b80601f01602080910402602001604051908101604052809291908181526020018280546104a4906106a1565b80156104f15780601f106104c6576101008083540402835291602001916104f1565b820191906000526020600020905b8154815290600101906020018083116104d457829003601f168201915b5050505050815250509050919050565b60006020828403121561051357600080fd5b5035919050565b6000815180845260005b8181101561054057602081850181015186830182015201610524565b506000602082860101526020601f19601f83011685010191505092915050565b6001600160a01b03831681526040602082018190526000906105849083018461051a565b949350505050565b60018060a01b0381511682526000602082015160406020850152610584604085018261051a565b6000602080830181845280855180835260408601915060408160051b870101925083870160005b8281101561060857603f198886030184526105f685835161058c565b945092850192908501906001016105da565b5092979650505050505050565b6000806020838503121561062857600080fd5b823567ffffffffffffffff8082111561064057600080fd5b818501915085601f83011261065457600080fd5b81358181111561066357600080fd5b86602082850101111561067557600080fd5b60209290920196919550909350505050565b60208152600061069a602083018461058c565b9392505050565b600181811c908216806106b557607f821691505b60208210810361035157634e487b7160e01b600052602260045260246000fd5b634e487b7160e01b600052604160045260246000fd5b634e487b7160e01b600052603260045260246000fd5b634e487b7160e01b600052601160045260246000fd5b60006001820161072957610729610701565b5060010190565b601f82111561077a57600081815260208120601f850160051c810160208610156107575750805b601f850160051c820191505b8181101561077657828155600101610763565b5050505b505050565b815167ffffffffffffffff811115610799576107996106d5565b6107ad816107a784546106a1565b84610730565b602080601f8311600181146107e257600084156107ca5750858301515b600019600386901b1c1916600185901b178555610776565b600085815260208120601f198616915b82811015610811578886015182559484019460019091019084016107f2565b508582101561082f5787850151600019600388901b60f8161c191681555b5050505050600190811b01905550565b8082018082111561085257610852610701565b9291505056fea26469706673582212209a405fd82d03b120f0776f40f0925e8a68491c99f9347b7b8e5fcce0969253c964736f6c63430008120033",
  "devdoc": {
    "kind": "dev",
    "methods": {},
    "version": 1
  },
  "userdoc": {
    "kind": "user",
    "methods": {},
    "version": 1
  },
  "storageLayout": {
    "storage": [
      {
        "astId": 6,
        "contract": "contracts/Board.sol:Board",
        "label": "owner",
        "offset": 0,
        "slot": "0",
        "type": "t_address"
      },
      {
        "astId": 8,
        "contract": "contracts/Board.sol:Board",
        "label": "cnt",
        "offset": 0,
        "slot": "1",
        "type": "t_uint256"
      },
      {
        "astId": 13,
        "contract": "contracts/Board.sol:Board",
        "label": "article",
        "offset": 0,
        "slot": "2",
        "type": "t_mapping(t_uint256,t_struct(Article)120_storage)"
      }
    ],
    "types": {
      "t_address": {
        "encoding": "inplace",
        "label": "address",
        "numberOfBytes": "20"
      },
      "t_mapping(t_uint256,t_struct(Article)120_storage)": {
        "encoding": "mapping",
        "key": "t_uint256",
        "label": "mapping(uint256 => struct Article)",
        "numberOfBytes": "32",
        "value": "t_struct(Article)120_storage"
      },
      "t_string_storage": {
        "encoding": "bytes",
        "label": "string",
        "numberOfBytes": "32"
      },
      "t_struct(Article)120_storage": {
        "encoding": "inplace",
        "label": "struct Article",
        "members": [
          {
            "astId": 117,
            "contract": "contracts/Board.sol:Board",
            "label": "writer",
            "offset": 0,
            "slot": "0",
            "type": "t_address"
          },
          {
            "astId": 119,
            "contract": "contracts/Board.sol:Board",
            "label": "content",
            "offset": 0,
            "slot": "1",
            "type": "t_string_storage"
          }
        ],
        "numberOfBytes": "64"
      },
      "t_uint256": {
        "encoding": "inplace",
        "label": "uint256",
        "numberOfBytes": "32"
      }
    }
  }
}